{
  "_format": "hh-sol-artifact-1",
  "contractName": "BlindBox",
  "sourceName": "contracts/BlindBox.sol",
  "abi": [
    {
      "inputs": [],
      "stateMutability": "nonpayable",
      "type": "constructor"
    },
    {
      "inputs": [
        {
          "internalType": "address",
          "name": "sender",
          "type": "address"
        },
        {
          "internalType": "uint256",
          "name": "balance",
          "type": "uint256"
        },
        {
          "internalType": "uint256",
          "name": "needed",
          "type": "uint256"
        },
        {
          "internalType": "uint256",
          "name": "tokenId",
          "type": "uint256"
        }
      ],
      "name": "ERC1155InsufficientBalance",
      "type": "error"
    },
    {
      "inputs": [
        {
          "internalType": "address",
          "name": "approver",
          "type": "address"
        }
      ],
      "name": "ERC1155InvalidApprover",
      "type": "error"
    },
    {
      "inputs": [
        {
          "internalType": "uint256",
          "name": "idsLength",
          "type": "uint256"
        },
        {
          "internalType": "uint256",
          "name": "valuesLength",
          "type": "uint256"
        }
      ],
      "name": "ERC1155InvalidArrayLength",
      "type": "error"
    },
    {
      "inputs": [
        {
          "internalType": "address",
          "name": "operator",
          "type": "address"
        }
      ],
      "name": "ERC1155InvalidOperator",
      "type": "error"
    },
    {
      "inputs": [
        {
          "internalType": "address",
          "name": "receiver",
          "type": "address"
        }
      ],
      "name": "ERC1155InvalidReceiver",
      "type": "error"
    },
    {
      "inputs": [
        {
          "internalType": "address",
          "name": "sender",
          "type": "address"
        }
      ],
      "name": "ERC1155InvalidSender",
      "type": "error"
    },
    {
      "inputs": [
        {
          "internalType": "address",
          "name": "operator",
          "type": "address"
        },
        {
          "internalType": "address",
          "name": "owner",
          "type": "address"
        }
      ],
      "name": "ERC1155MissingApprovalForAll",
      "type": "error"
    },
    {
      "inputs": [
        {
          "internalType": "address",
          "name": "owner",
          "type": "address"
        }
      ],
      "name": "OwnableInvalidOwner",
      "type": "error"
    },
    {
      "inputs": [
        {
          "internalType": "address",
          "name": "account",
          "type": "address"
        }
      ],
      "name": "OwnableUnauthorizedAccount",
      "type": "error"
    },
    {
      "anonymous": false,
      "inputs": [
        {
          "indexed": true,
          "internalType": "address",
          "name": "account",
          "type": "address"
        },
        {
          "indexed": true,
          "internalType": "address",
          "name": "operator",
          "type": "address"
        },
        {
          "indexed": false,
          "internalType": "bool",
          "name": "approved",
          "type": "bool"
        }
      ],
      "name": "ApprovalForAll",
      "type": "event"
    },
    {
      "anonymous": false,
      "inputs": [
        {
          "indexed": true,
          "internalType": "address",
          "name": "previousOwner",
          "type": "address"
        },
        {
          "indexed": true,
          "internalType": "address",
          "name": "newOwner",
          "type": "address"
        }
      ],
      "name": "OwnershipTransferred",
      "type": "event"
    },
    {
      "anonymous": false,
      "inputs": [
        {
          "indexed": true,
          "internalType": "address",
          "name": "operator",
          "type": "address"
        },
        {
          "indexed": true,
          "internalType": "address",
          "name": "from",
          "type": "address"
        },
        {
          "indexed": true,
          "internalType": "address",
          "name": "to",
          "type": "address"
        },
        {
          "indexed": false,
          "internalType": "uint256[]",
          "name": "ids",
          "type": "uint256[]"
        },
        {
          "indexed": false,
          "internalType": "uint256[]",
          "name": "values",
          "type": "uint256[]"
        }
      ],
      "name": "TransferBatch",
      "type": "event"
    },
    {
      "anonymous": false,
      "inputs": [
        {
          "indexed": true,
          "internalType": "address",
          "name": "operator",
          "type": "address"
        },
        {
          "indexed": true,
          "internalType": "address",
          "name": "from",
          "type": "address"
        },
        {
          "indexed": true,
          "internalType": "address",
          "name": "to",
          "type": "address"
        },
        {
          "indexed": false,
          "internalType": "uint256",
          "name": "id",
          "type": "uint256"
        },
        {
          "indexed": false,
          "internalType": "uint256",
          "name": "value",
          "type": "uint256"
        }
      ],
      "name": "TransferSingle",
      "type": "event"
    },
    {
      "anonymous": false,
      "inputs": [
        {
          "indexed": false,
          "internalType": "string",
          "name": "value",
          "type": "string"
        },
        {
          "indexed": true,
          "internalType": "uint256",
          "name": "id",
          "type": "uint256"
        }
      ],
      "name": "URI",
      "type": "event"
    },
    {
      "inputs": [
        {
          "internalType": "address",
          "name": "account",
          "type": "address"
        },
        {
          "internalType": "uint256",
          "name": "id",
          "type": "uint256"
        }
      ],
      "name": "balanceOf",
      "outputs": [
        {
          "internalType": "uint256",
          "name": "",
          "type": "uint256"
        }
      ],
      "stateMutability": "view",
      "type": "function"
    },
    {
      "inputs": [
        {
          "internalType": "address[]",
          "name": "accounts",
          "type": "address[]"
        },
        {
          "internalType": "uint256[]",
          "name": "ids",
          "type": "uint256[]"
        }
      ],
      "name": "balanceOfBatch",
      "outputs": [
        {
          "internalType": "uint256[]",
          "name": "",
          "type": "uint256[]"
        }
      ],
      "stateMutability": "view",
      "type": "function"
    },
    {
      "inputs": [
        {
          "internalType": "address",
          "name": "account",
          "type": "address"
        },
        {
          "internalType": "address",
          "name": "operator",
          "type": "address"
        }
      ],
      "name": "isApprovedForAll",
      "outputs": [
        {
          "internalType": "bool",
          "name": "",
          "type": "bool"
        }
      ],
      "stateMutability": "view",
      "type": "function"
    },
    {
      "inputs": [
        {
          "internalType": "uint256",
          "name": "_quantity",
          "type": "uint256"
        }
      ],
      "name": "mintNFT",
      "outputs": [],
      "stateMutability": "payable",
      "type": "function"
    },
    {
      "inputs": [],
      "name": "owner",
      "outputs": [
        {
          "internalType": "address",
          "name": "",
          "type": "address"
        }
      ],
      "stateMutability": "view",
      "type": "function"
    },
    {
      "inputs": [],
      "name": "renounceOwnership",
      "outputs": [],
      "stateMutability": "nonpayable",
      "type": "function"
    },
    {
      "inputs": [
        {
          "internalType": "address",
          "name": "from",
          "type": "address"
        },
        {
          "internalType": "address",
          "name": "to",
          "type": "address"
        },
        {
          "internalType": "uint256[]",
          "name": "ids",
          "type": "uint256[]"
        },
        {
          "internalType": "uint256[]",
          "name": "values",
          "type": "uint256[]"
        },
        {
          "internalType": "bytes",
          "name": "data",
          "type": "bytes"
        }
      ],
      "name": "safeBatchTransferFrom",
      "outputs": [],
      "stateMutability": "nonpayable",
      "type": "function"
    },
    {
      "inputs": [
        {
          "internalType": "address",
          "name": "from",
          "type": "address"
        },
        {
          "internalType": "address",
          "name": "to",
          "type": "address"
        },
        {
          "internalType": "uint256",
          "name": "id",
          "type": "uint256"
        },
        {
          "internalType": "uint256",
          "name": "value",
          "type": "uint256"
        },
        {
          "internalType": "bytes",
          "name": "data",
          "type": "bytes"
        }
      ],
      "name": "safeTransferFrom",
      "outputs": [],
      "stateMutability": "nonpayable",
      "type": "function"
    },
    {
      "inputs": [
        {
          "internalType": "address",
          "name": "operator",
          "type": "address"
        },
        {
          "internalType": "bool",
          "name": "approved",
          "type": "bool"
        }
      ],
      "name": "setApprovalForAll",
      "outputs": [],
      "stateMutability": "nonpayable",
      "type": "function"
    },
    {
      "inputs": [
        {
          "internalType": "bytes4",
          "name": "interfaceId",
          "type": "bytes4"
        }
      ],
      "name": "supportsInterface",
      "outputs": [
        {
          "internalType": "bool",
          "name": "",
          "type": "bool"
        }
      ],
      "stateMutability": "view",
      "type": "function"
    },
    {
      "inputs": [
        {
          "internalType": "address",
          "name": "newOwner",
          "type": "address"
        }
      ],
      "name": "transferOwnership",
      "outputs": [],
      "stateMutability": "nonpayable",
      "type": "function"
    },
    {
      "inputs": [
        {
          "internalType": "uint256",
          "name": "",
          "type": "uint256"
        }
      ],
      "name": "uri",
      "outputs": [
        {
          "internalType": "string",
          "name": "",
          "type": "string"
        }
      ],
      "stateMutability": "view",
      "type": "function"
    },
    {
      "inputs": [],
      "name": "withdraw",
      "outputs": [],
      "stateMutability": "nonpayable",
      "type": "function"
    }
  ],
  "bytecode": "0x608060405260006004553480156200001657600080fd5b503360405180608001604052806044815260200162002ca3604491396200004381620000d160201b60201c565b50600073ffffffffffffffffffffffffffffffffffffffff168173ffffffffffffffffffffffffffffffffffffffff1603620000b95760006040517f1e4fbdf7000000000000000000000000000000000000000000000000000000008152600401620000b09190620001f1565b60405180910390fd5b620000ca81620000e660201b60201c565b506200056f565b8060029081620000e2919062000488565b5050565b6000600360009054906101000a900473ffffffffffffffffffffffffffffffffffffffff16905081600360006101000a81548173ffffffffffffffffffffffffffffffffffffffff021916908373ffffffffffffffffffffffffffffffffffffffff1602179055508173ffffffffffffffffffffffffffffffffffffffff168173ffffffffffffffffffffffffffffffffffffffff167f8be0079c531659141344cd1fd0a4f28419497f9722a3daafe3b4186f6b6457e060405160405180910390a35050565b600073ffffffffffffffffffffffffffffffffffffffff82169050919050565b6000620001d982620001ac565b9050919050565b620001eb81620001cc565b82525050565b6000602082019050620002086000830184620001e0565b92915050565b600081519050919050565b7f4e487b7100000000000000000000000000000000000000000000000000000000600052604160045260246000fd5b7f4e487b7100000000000000000000000000000000000000000000000000000000600052602260045260246000fd5b600060028204905060018216806200029057607f821691505b602082108103620002a657620002a562000248565b5b50919050565b60008190508160005260206000209050919050565b60006020601f8301049050919050565b600082821b905092915050565b600060088302620003107fffffffffffffffffffffffffffffffffffffffffffffffffffffffffffffffff82620002d1565b6200031c8683620002d1565b95508019841693508086168417925050509392505050565b6000819050919050565b6000819050919050565b600062000369620003636200035d8462000334565b6200033e565b62000334565b9050919050565b6000819050919050565b620003858362000348565b6200039d620003948262000370565b848454620002de565b825550505050565b600090565b620003b4620003a5565b620003c18184846200037a565b505050565b5b81811015620003e957620003dd600082620003aa565b600181019050620003c7565b5050565b601f82111562000438576200040281620002ac565b6200040d84620002c1565b810160208510156200041d578190505b620004356200042c85620002c1565b830182620003c6565b50505b505050565b600082821c905092915050565b60006200045d600019846008026200043d565b1980831691505092915050565b60006200047883836200044a565b9150826002028217905092915050565b62000493826200020e565b67ffffffffffffffff811115620004af57620004ae62000219565b5b620004bb825462000277565b620004c8828285620003ed565b600060209050601f831160018114620005005760008415620004eb578287015190505b620004f785826200046a565b86555062000567565b601f1984166200051086620002ac565b60005b828110156200053a5784890151825560018201915060208501945060208101905062000513565b868310156200055a578489015162000556601f8916826200044a565b8355505b6001600288020188555050505b505050505050565b612724806200057f6000396000f3fe6080604052600436106100c15760003560e01c8063715018a61161007f578063a22cb46511610059578063a22cb46514610258578063e985e9c514610281578063f242432a146102be578063f2fde38b146102e7576100c1565b8063715018a6146101fa5780638da5cb5b14610211578063926427441461023c576100c1565b8062fdd58e146100c657806301ffc9a7146101035780630e89341c146101405780632eb2c2d61461017d5780633ccfd60b146101a65780634e1273f4146101bd575b600080fd5b3480156100d257600080fd5b506100ed60048036038101906100e8919061194a565b610310565b6040516100fa9190611999565b60405180910390f35b34801561010f57600080fd5b5061012a60048036038101906101259190611a0c565b61036a565b6040516101379190611a54565b60405180910390f35b34801561014c57600080fd5b5061016760048036038101906101629190611a6f565b61044c565b6040516101749190611b2c565b60405180910390f35b34801561018957600080fd5b506101a4600480360381019061019f9190611d4b565b6104e0565b005b3480156101b257600080fd5b506101bb610588565b005b3480156101c957600080fd5b506101e460048036038101906101df9190611edd565b6105e6565b6040516101f19190612013565b60405180910390f35b34801561020657600080fd5b5061020f6106ef565b005b34801561021d57600080fd5b50610226610703565b6040516102339190612044565b60405180910390f35b61025660048036038101906102519190611a6f565b61072d565b005b34801561026457600080fd5b5061027f600480360381019061027a919061208b565b6108e5565b005b34801561028d57600080fd5b506102a860048036038101906102a391906120cb565b6108fb565b6040516102b59190611a54565b60405180910390f35b3480156102ca57600080fd5b506102e560048036038101906102e0919061210b565b61098f565b005b3480156102f357600080fd5b5061030e600480360381019061030991906121a2565b610a37565b005b600080600083815260200190815260200160002060008473ffffffffffffffffffffffffffffffffffffffff1673ffffffffffffffffffffffffffffffffffffffff16815260200190815260200160002054905092915050565b60007fd9b67a26000000000000000000000000000000000000000000000000000000007bffffffffffffffffffffffffffffffffffffffffffffffffffffffff1916827bffffffffffffffffffffffffffffffffffffffffffffffffffffffff1916148061043557507f0e89341c000000000000000000000000000000000000000000000000000000007bffffffffffffffffffffffffffffffffffffffffffffffffffffffff1916827bffffffffffffffffffffffffffffffffffffffffffffffffffffffff1916145b80610445575061044482610abd565b5b9050919050565b60606002805461045b906121fe565b80601f0160208091040260200160405190810160405280929190818152602001828054610487906121fe565b80156104d45780601f106104a9576101008083540402835291602001916104d4565b820191906000526020600020905b8154815290600101906020018083116104b757829003601f168201915b50505050509050919050565b60006104ea610b27565b90508073ffffffffffffffffffffffffffffffffffffffff168673ffffffffffffffffffffffffffffffffffffffff161415801561052f575061052d86826108fb565b155b156105735780866040517fe237d92200000000000000000000000000000000000000000000000000000000815260040161056a92919061222f565b60405180910390fd5b6105808686868686610b2f565b505050505050565b610590610c27565b600047905061059d610703565b73ffffffffffffffffffffffffffffffffffffffff166108fc829081150290604051600060405180830381858888f193505050501580156105e2573d6000803e3d6000fd5b5050565b6060815183511461063257815183516040517f5b059991000000000000000000000000000000000000000000000000000000008152600401610629929190612258565b60405180910390fd5b6000835167ffffffffffffffff81111561064f5761064e611b53565b5b60405190808252806020026020018201604052801561067d5781602001602082028036833780820191505090505b50905060005b84518110156106e4576106ba6106a28287610cae90919063ffffffff16565b6106b58387610cc290919063ffffffff16565b610310565b8282815181106106cd576106cc612281565b5b602002602001018181525050806001019050610683565b508091505092915050565b6106f7610c27565b6107016000610cd6565b565b6000600360009054906101000a900473ffffffffffffffffffffffffffffffffffffffff16905090565b60008103610770576040517f08c379a000000000000000000000000000000000000000000000000000000000815260040161076790612322565b60405180910390fd5b600081905060045460016107849190612371565b82111561079d57600454600161079a9190612371565b90505b6001600454106107e2576040517f08c379a00000000000000000000000000000000000000000000000000000000081526004016107d990612417565b60405180910390fd5b80655af3107a40006107f49190612437565b341015610836576040517f08c379a000000000000000000000000000000000000000000000000000000000815260040161082d906124c5565b60405180910390fd5b600081655af3107a400061084a9190612437565b346108559190612371565b905060008111156108a8573373ffffffffffffffffffffffffffffffffffffffff166108fc829081150290604051600060405180830381858888f193505050501580156108a6573d6000803e3d6000fd5b505b6108c733600c60ff168460405180602001604052806000815250610d9c565b81600460008282546108d991906124e5565b92505081905550505050565b6108f76108f0610b27565b8383610e35565b5050565b6000600160008473ffffffffffffffffffffffffffffffffffffffff1673ffffffffffffffffffffffffffffffffffffffff16815260200190815260200160002060008373ffffffffffffffffffffffffffffffffffffffff1673ffffffffffffffffffffffffffffffffffffffff16815260200190815260200160002060009054906101000a900460ff16905092915050565b6000610999610b27565b90508073ffffffffffffffffffffffffffffffffffffffff168673ffffffffffffffffffffffffffffffffffffffff16141580156109de57506109dc86826108fb565b155b15610a225780866040517fe237d922000000000000000000000000000000000000000000000000000000008152600401610a1992919061222f565b60405180910390fd5b610a2f8686868686610fa5565b505050505050565b610a3f610c27565b600073ffffffffffffffffffffffffffffffffffffffff168173ffffffffffffffffffffffffffffffffffffffff1603610ab15760006040517f1e4fbdf7000000000000000000000000000000000000000000000000000000008152600401610aa89190612044565b60405180910390fd5b610aba81610cd6565b50565b60007f01ffc9a7000000000000000000000000000000000000000000000000000000007bffffffffffffffffffffffffffffffffffffffffffffffffffffffff1916827bffffffffffffffffffffffffffffffffffffffffffffffffffffffff1916149050919050565b600033905090565b600073ffffffffffffffffffffffffffffffffffffffff168473ffffffffffffffffffffffffffffffffffffffff1603610ba15760006040517f57f447ce000000000000000000000000000000000000000000000000000000008152600401610b989190612044565b60405180910390fd5b600073ffffffffffffffffffffffffffffffffffffffff168573ffffffffffffffffffffffffffffffffffffffff1603610c135760006040517f01a83514000000000000000000000000000000000000000000000000000000008152600401610c0a9190612044565b60405180910390fd5b610c2085858585856110b0565b5050505050565b610c2f610b27565b73ffffffffffffffffffffffffffffffffffffffff16610c4d610703565b73ffffffffffffffffffffffffffffffffffffffff1614610cac57610c70610b27565b6040517f118cdaa7000000000000000000000000000000000000000000000000000000008152600401610ca39190612044565b60405180910390fd5b565b600060208202602084010151905092915050565b600060208202602084010151905092915050565b6000600360009054906101000a900473ffffffffffffffffffffffffffffffffffffffff16905081600360006101000a81548173ffffffffffffffffffffffffffffffffffffffff021916908373ffffffffffffffffffffffffffffffffffffffff1602179055508173ffffffffffffffffffffffffffffffffffffffff168173ffffffffffffffffffffffffffffffffffffffff167f8be0079c531659141344cd1fd0a4f28419497f9722a3daafe3b4186f6b6457e060405160405180910390a35050565b600073ffffffffffffffffffffffffffffffffffffffff168473ffffffffffffffffffffffffffffffffffffffff1603610e0e5760006040517f57f447ce000000000000000000000000000000000000000000000000000000008152600401610e059190612044565b60405180910390fd5b600080610e1b8585611162565b91509150610e2d6000878484876110b0565b505050505050565b600073ffffffffffffffffffffffffffffffffffffffff168273ffffffffffffffffffffffffffffffffffffffff1603610ea75760006040517fced3e100000000000000000000000000000000000000000000000000000000008152600401610e9e9190612044565b60405180910390fd5b80600160008573ffffffffffffffffffffffffffffffffffffffff1673ffffffffffffffffffffffffffffffffffffffff16815260200190815260200160002060008473ffffffffffffffffffffffffffffffffffffffff1673ffffffffffffffffffffffffffffffffffffffff16815260200190815260200160002060006101000a81548160ff0219169083151502179055508173ffffffffffffffffffffffffffffffffffffffff168373ffffffffffffffffffffffffffffffffffffffff167f17307eab39ab6107e8899845ad3d59bd9653f200f220920489ca2b5937696c3183604051610f989190611a54565b60405180910390a3505050565b600073ffffffffffffffffffffffffffffffffffffffff168473ffffffffffffffffffffffffffffffffffffffff16036110175760006040517f57f447ce00000000000000000000000000000000000000000000000000000000815260040161100e9190612044565b60405180910390fd5b600073ffffffffffffffffffffffffffffffffffffffff168573ffffffffffffffffffffffffffffffffffffffff16036110895760006040517f01a835140000000000000000000000000000000000000000000000000000000081526004016110809190612044565b60405180910390fd5b6000806110968585611162565b915091506110a787878484876110b0565b50505050505050565b6110bc85858585611192565b600073ffffffffffffffffffffffffffffffffffffffff168473ffffffffffffffffffffffffffffffffffffffff161461115b5760006110fa610b27565b9050600184510361114a57600061111b600086610cc290919063ffffffff16565b90506000611133600086610cc290919063ffffffff16565b905061114383898985858961153a565b5050611159565b6111588187878787876116ee565b5b505b5050505050565b60608060405191506001825283602083015260408201905060018152826020820152604081016040529250929050565b80518251146111dc57815181516040517f5b0599910000000000000000000000000000000000000000000000000000000081526004016111d3929190612258565b60405180910390fd5b60006111e6610b27565b905060005b83518110156113f55760006112098286610cc290919063ffffffff16565b905060006112208386610cc290919063ffffffff16565b9050600073ffffffffffffffffffffffffffffffffffffffff168873ffffffffffffffffffffffffffffffffffffffff161461134d57600080600084815260200190815260200160002060008a73ffffffffffffffffffffffffffffffffffffffff1673ffffffffffffffffffffffffffffffffffffffff168152602001908152602001600020549050818110156112f557888183856040517f03dee4c50000000000000000000000000000000000000000000000000000000081526004016112ec9493929190612519565b60405180910390fd5b81810360008085815260200190815260200160002060008b73ffffffffffffffffffffffffffffffffffffffff1673ffffffffffffffffffffffffffffffffffffffff16815260200190815260200160002081905550505b600073ffffffffffffffffffffffffffffffffffffffff168773ffffffffffffffffffffffffffffffffffffffff16146113e8578060008084815260200190815260200160002060008973ffffffffffffffffffffffffffffffffffffffff1673ffffffffffffffffffffffffffffffffffffffff16815260200190815260200160002060008282546113e091906124e5565b925050819055505b50508060010190506111eb565b5060018351036114b4576000611415600085610cc290919063ffffffff16565b9050600061142d600085610cc290919063ffffffff16565b90508573ffffffffffffffffffffffffffffffffffffffff168773ffffffffffffffffffffffffffffffffffffffff168473ffffffffffffffffffffffffffffffffffffffff167fc3d58168c5ae7397731d063d5bbf3d657854427343f4c083240f7aacaa2d0f6285856040516114a5929190612258565b60405180910390a45050611533565b8373ffffffffffffffffffffffffffffffffffffffff168573ffffffffffffffffffffffffffffffffffffffff168273ffffffffffffffffffffffffffffffffffffffff167f4a39dc06d4c0dbc64b70af90fd698a233a518aa5d07e595d983b8c0526c8f7fb868660405161152a92919061255e565b60405180910390a45b5050505050565b60008473ffffffffffffffffffffffffffffffffffffffff163b11156116e6578373ffffffffffffffffffffffffffffffffffffffff1663f23a6e6187878686866040518663ffffffff1660e01b815260040161159b9594939291906125ea565b6020604051808303816000875af19250505080156115d757506040513d601f19601f820116820180604052508101906115d49190612659565b60015b61165b573d8060008114611607576040519150601f19603f3d011682016040523d82523d6000602084013e61160c565b606091505b50600081510361165357846040517f57f447ce00000000000000000000000000000000000000000000000000000000815260040161164a9190612044565b60405180910390fd5b805181602001fd5b63f23a6e6160e01b7bffffffffffffffffffffffffffffffffffffffffffffffffffffffff1916817bffffffffffffffffffffffffffffffffffffffffffffffffffffffff1916146116e457846040517f57f447ce0000000000000000000000000000000000000000000000000000000081526004016116db9190612044565b60405180910390fd5b505b505050505050565b60008473ffffffffffffffffffffffffffffffffffffffff163b111561189a578373ffffffffffffffffffffffffffffffffffffffff1663bc197c8187878686866040518663ffffffff1660e01b815260040161174f959493929190612686565b6020604051808303816000875af192505050801561178b57506040513d601f19601f820116820180604052508101906117889190612659565b60015b61180f573d80600081146117bb576040519150601f19603f3d011682016040523d82523d6000602084013e6117c0565b606091505b50600081510361180757846040517f57f447ce0000000000000000000000000000000000000000000000000000000081526004016117fe9190612044565b60405180910390fd5b805181602001fd5b63bc197c8160e01b7bffffffffffffffffffffffffffffffffffffffffffffffffffffffff1916817bffffffffffffffffffffffffffffffffffffffffffffffffffffffff19161461189857846040517f57f447ce00000000000000000000000000000000000000000000000000000000815260040161188f9190612044565b60405180910390fd5b505b505050505050565b6000604051905090565b600080fd5b600080fd5b600073ffffffffffffffffffffffffffffffffffffffff82169050919050565b60006118e1826118b6565b9050919050565b6118f1816118d6565b81146118fc57600080fd5b50565b60008135905061190e816118e8565b92915050565b6000819050919050565b61192781611914565b811461193257600080fd5b50565b6000813590506119448161191e565b92915050565b60008060408385031215611961576119606118ac565b5b600061196f858286016118ff565b925050602061198085828601611935565b9150509250929050565b61199381611914565b82525050565b60006020820190506119ae600083018461198a565b92915050565b60007fffffffff0000000000000000000000000000000000000000000000000000000082169050919050565b6119e9816119b4565b81146119f457600080fd5b50565b600081359050611a06816119e0565b92915050565b600060208284031215611a2257611a216118ac565b5b6000611a30848285016119f7565b91505092915050565b60008115159050919050565b611a4e81611a39565b82525050565b6000602082019050611a696000830184611a45565b92915050565b600060208284031215611a8557611a846118ac565b5b6000611a9384828501611935565b91505092915050565b600081519050919050565b600082825260208201905092915050565b60005b83811015611ad6578082015181840152602081019050611abb565b60008484015250505050565b6000601f19601f8301169050919050565b6000611afe82611a9c565b611b088185611aa7565b9350611b18818560208601611ab8565b611b2181611ae2565b840191505092915050565b60006020820190508181036000830152611b468184611af3565b905092915050565b600080fd5b7f4e487b7100000000000000000000000000000000000000000000000000000000600052604160045260246000fd5b611b8b82611ae2565b810181811067ffffffffffffffff82111715611baa57611ba9611b53565b5b80604052505050565b6000611bbd6118a2565b9050611bc98282611b82565b919050565b600067ffffffffffffffff821115611be957611be8611b53565b5b602082029050602081019050919050565b600080fd5b6000611c12611c0d84611bce565b611bb3565b90508083825260208201905060208402830185811115611c3557611c34611bfa565b5b835b81811015611c5e5780611c4a8882611935565b845260208401935050602081019050611c37565b5050509392505050565b600082601f830112611c7d57611c7c611b4e565b5b8135611c8d848260208601611bff565b91505092915050565b600080fd5b600067ffffffffffffffff821115611cb657611cb5611b53565b5b611cbf82611ae2565b9050602081019050919050565b82818337600083830152505050565b6000611cee611ce984611c9b565b611bb3565b905082815260208101848484011115611d0a57611d09611c96565b5b611d15848285611ccc565b509392505050565b600082601f830112611d3257611d31611b4e565b5b8135611d42848260208601611cdb565b91505092915050565b600080600080600060a08688031215611d6757611d666118ac565b5b6000611d75888289016118ff565b9550506020611d86888289016118ff565b945050604086013567ffffffffffffffff811115611da757611da66118b1565b5b611db388828901611c68565b935050606086013567ffffffffffffffff811115611dd457611dd36118b1565b5b611de088828901611c68565b925050608086013567ffffffffffffffff811115611e0157611e006118b1565b5b611e0d88828901611d1d565b9150509295509295909350565b600067ffffffffffffffff821115611e3557611e34611b53565b5b602082029050602081019050919050565b6000611e59611e5484611e1a565b611bb3565b90508083825260208201905060208402830185811115611e7c57611e7b611bfa565b5b835b81811015611ea55780611e9188826118ff565b845260208401935050602081019050611e7e565b5050509392505050565b600082601f830112611ec457611ec3611b4e565b5b8135611ed4848260208601611e46565b91505092915050565b60008060408385031215611ef457611ef36118ac565b5b600083013567ffffffffffffffff811115611f1257611f116118b1565b5b611f1e85828601611eaf565b925050602083013567ffffffffffffffff811115611f3f57611f3e6118b1565b5b611f4b85828601611c68565b9150509250929050565b600081519050919050565b600082825260208201905092915050565b6000819050602082019050919050565b611f8a81611914565b82525050565b6000611f9c8383611f81565b60208301905092915050565b6000602082019050919050565b6000611fc082611f55565b611fca8185611f60565b9350611fd583611f71565b8060005b83811015612006578151611fed8882611f90565b9750611ff883611fa8565b925050600181019050611fd9565b5085935050505092915050565b6000602082019050818103600083015261202d8184611fb5565b905092915050565b61203e816118d6565b82525050565b60006020820190506120596000830184612035565b92915050565b61206881611a39565b811461207357600080fd5b50565b6000813590506120858161205f565b92915050565b600080604083850312156120a2576120a16118ac565b5b60006120b0858286016118ff565b92505060206120c185828601612076565b9150509250929050565b600080604083850312156120e2576120e16118ac565b5b60006120f0858286016118ff565b9250506020612101858286016118ff565b9150509250929050565b600080600080600060a08688031215612127576121266118ac565b5b6000612135888289016118ff565b9550506020612146888289016118ff565b945050604061215788828901611935565b935050606061216888828901611935565b925050608086013567ffffffffffffffff811115612189576121886118b1565b5b61219588828901611d1d565b9150509295509295909350565b6000602082840312156121b8576121b76118ac565b5b60006121c6848285016118ff565b91505092915050565b7f4e487b7100000000000000000000000000000000000000000000000000000000600052602260045260246000fd5b6000600282049050600182168061221657607f821691505b602082108103612229576122286121cf565b5b50919050565b60006040820190506122446000830185612035565b6122516020830184612035565b9392505050565b600060408201905061226d600083018561198a565b61227a602083018461198a565b9392505050565b7f4e487b7100000000000000000000000000000000000000000000000000000000600052603260045260246000fd5b7f43617374696e67207175616e74697479206d757374206265206d6f726520746860008201527f616e203100000000000000000000000000000000000000000000000000000000602082015250565b600061230c602483611aa7565b9150612317826122b0565b604082019050919050565b6000602082019050818103600083015261233b816122ff565b9050919050565b7f4e487b7100000000000000000000000000000000000000000000000000000000600052601160045260246000fd5b600061237c82611914565b915061238783611914565b925082820390508181111561239f5761239e612342565b5b92915050565b7f54686520626c696e6420626f782069737375616e636520686173206265656e2060008201527f6578686175737465642e00000000000000000000000000000000000000000000602082015250565b6000612401602a83611aa7565b915061240c826123a5565b604082019050919050565b60006020820190508181036000830152612430816123f4565b9050919050565b600061244282611914565b915061244d83611914565b925082820261245b81611914565b9150828204841483151761247257612471612342565b5b5092915050565b7f496e636f7272656374207061796d656e7420616d6f756e740000000000000000600082015250565b60006124af601883611aa7565b91506124ba82612479565b602082019050919050565b600060208201905081810360008301526124de816124a2565b9050919050565b60006124f082611914565b91506124fb83611914565b925082820190508082111561251357612512612342565b5b92915050565b600060808201905061252e6000830187612035565b61253b602083018661198a565b612548604083018561198a565b612555606083018461198a565b95945050505050565b600060408201905081810360008301526125788185611fb5565b9050818103602083015261258c8184611fb5565b90509392505050565b600081519050919050565b600082825260208201905092915050565b60006125bc82612595565b6125c681856125a0565b93506125d6818560208601611ab8565b6125df81611ae2565b840191505092915050565b600060a0820190506125ff6000830188612035565b61260c6020830187612035565b612619604083018661198a565b612626606083018561198a565b818103608083015261263881846125b1565b90509695505050505050565b600081519050612653816119e0565b92915050565b60006020828403121561266f5761266e6118ac565b5b600061267d84828501612644565b91505092915050565b600060a08201905061269b6000830188612035565b6126a86020830187612035565b81810360408301526126ba8186611fb5565b905081810360608301526126ce8185611fb5565b905081810360808301526126e281846125b1565b9050969550505050505056fea26469706673582212208b41258363d237c55d545ba7fc56c41ab85967f39671d6c1688ee15e822a8d5464736f6c6343000818003368747470733a2f2f7261772e67697468756275736572636f6e74656e742e636f6d2f4f6e656e6573734c6162735465616d2f746573742f6d61696e2f626f782e6a736f6e",
  "linkReferences": {},
  "deployedLinkReferences": {}
}